{
  "transactions": [
    {
      "hash": "0xa0532ed5f37c74c794d64d96da81d153115cb4e0f9755921e1448d1b0d5027b1",
      "transactionType": "CALL",
      "contractName": null,
      "contractAddress": "0x5920257792dbba08dfadd34607b781e3c2cdb3cf",
      "function": "mint(address,uint256)",
      "arguments": [
        "0x00fBd18efDE748E1B3f7Bb01C79FbC318610b807",
        "1000"
      ],
      "transaction": {
        "from": "0x00fbd18efde748e1b3f7bb01c79fbc318610b807",
        "to": "0x5920257792dbba08dfadd34607b781e3c2cdb3cf",
        "gas": "0x11493",
        "value": "0x0",
        "input": "0x40c10f1900000000000000000000000000fbd18efde748e1b3f7bb01c79fbc318610b80700000000000000000000000000000000000000000000000000000000000003e8",
        "nonce": "0xf",
        "chainId": "0x8274f"
      },
      "additionalContracts": [],
      "isFixedGasLimit": false
    }
  ],
  "receipts": [
    {
      "status": "0x1",
      "cumulativeGasUsed": "0xc83d",
      "logs": [
        {
          "address": "0x5920257792dbba08dfadd34607b781e3c2cdb3cf",
          "topics": [
            "0xddf252ad1be2c89b69c2b068fc378daa952ba7f163c4a11628f55a4df523b3ef",
            "0x0000000000000000000000000000000000000000000000000000000000000000",
            "0x00000000000000000000000000fbd18efde748e1b3f7bb01c79fbc318610b807"
          ],
          "data": "0x00000000000000000000000000000000000000000000000000000000000003e8",
          "blockHash": "0xdc980173261dd4bd930d06c422842f633ff8425468869313aff66405c43a6ef0",
          "blockNumber": "0x6914fb",
          "transactionHash": "0xa0532ed5f37c74c794d64d96da81d153115cb4e0f9755921e1448d1b0d5027b1",
          "transactionIndex": "0x0",
          "logIndex": "0x0",
          "removed": false
        }
      ],
      "logsBloom": "0x00000000000000000000000000000000000000000000000000000000000000010000000200000000000000000000000000000000000000000000000000000000000000000000000000000008000000000000000040000000000000000000000000000000020000000000000000000800000000000000000000000010000000000000000000000000000000000000000000010000000000000000000000000000000000000000000000000000000000000000000000000000000000000000000000000002000000000000000000000000000000000000000000000000000020000000000000000000400000000000000000000000000000000000020000000000",
      "type": "0x2",
      "transactionHash": "0xa0532ed5f37c74c794d64d96da81d153115cb4e0f9755921e1448d1b0d5027b1",
      "transactionIndex": "0x0",
      "blockHash": "0xdc980173261dd4bd930d06c422842f633ff8425468869313aff66405c43a6ef0",
      "blockNumber": "0x6914fb",
      "gasUsed": "0xc83d",
      "effectiveGasPrice": "0xd5f7d4d2",
      "from": "0x00fbd18efde748e1b3f7bb01c79fbc318610b807",
      "to": "0x5920257792dbba08dfadd34607b781e3c2cdb3cf",
      "contractAddress": null,
      "l1Fee": "0xd0808c38dd91"
    }
  ],
  "libraries": [],
  "pending": [],
  "returns": {},
  "timestamp": 1728178728,
  "chain": 534351,
  "commit": "e311a2f"
}