{
  "transactions": [
    {
      "hash": "0x92c862ce3c27fcbdefc824a9da4648e83fee7583c549e06d26307e181526dcd2",
      "transactionType": "CALL",
      "contractName": null,
      "contractAddress": "0x5920257792dbba08dfadd34607b781e3c2cdb3cf",
      "function": "mint(address,uint256)",
      "arguments": [
        "0x2C3A5ad03e766CFF6fa7911eFa184cFe04235382",
        "1000000000000000000000000000000000000000000000000000000"
      ],
      "transaction": {
        "from": "0x00fbd18efde748e1b3f7bb01c79fbc318610b807",
        "to": "0x5920257792dbba08dfadd34607b781e3c2cdb3cf",
        "gas": "0x1159c",
        "value": "0x0",
        "input": "0x40c10f190000000000000000000000002c3a5ad03e766cff6fa7911efa184cfe042353820000000000000000000a70c3c40a64e6c51999090b65f67d9240000000000000",
        "nonce": "0x10",
        "chainId": "0x8274f"
      },
      "additionalContracts": [],
      "isFixedGasLimit": false
    }
  ],
  "receipts": [
    {
      "status": "0x1",
      "cumulativeGasUsed": "0xc8fd",
      "logs": [
        {
          "address": "0x5920257792dbba08dfadd34607b781e3c2cdb3cf",
          "topics": [
            "0xddf252ad1be2c89b69c2b068fc378daa952ba7f163c4a11628f55a4df523b3ef",
            "0x0000000000000000000000000000000000000000000000000000000000000000",
            "0x0000000000000000000000002c3a5ad03e766cff6fa7911efa184cfe04235382"
          ],
          "data": "0x0000000000000000000a70c3c40a64e6c51999090b65f67d9240000000000000",
          "blockHash": "0xa111962333ecca1fd8e2c7dbd6c3755caed96a9ee76fe5eaf9baf89780d24e1d",
          "blockNumber": "0x691508",
          "transactionHash": "0x92c862ce3c27fcbdefc824a9da4648e83fee7583c549e06d26307e181526dcd2",
          "transactionIndex": "0x0",
          "logIndex": "0x0",
          "removed": false
        }
      ],
      "logsBloom": "0x00000000000000000000000000000000000000000000000000000000000000000000000000000000000000001000000000000000000000000000000000000000000000000000000000000008000000000000000040000000000000000000000000000000020000000000000000000800000000000000000000000010000000000000000000000000000000000000000000000001000000000000000000000000000000000000000000000000000000000000000000000000000000000000000000000002000000000000000000000000000000000000000000000000000020000000000000000000400000000000000000000004000000000000020000000000",
      "type": "0x2",
      "transactionHash": "0x92c862ce3c27fcbdefc824a9da4648e83fee7583c549e06d26307e181526dcd2",
      "transactionIndex": "0x0",
      "blockHash": "0xa111962333ecca1fd8e2c7dbd6c3755caed96a9ee76fe5eaf9baf89780d24e1d",
      "blockNumber": "0x691508",
      "gasUsed": "0xc8fd",
      "effectiveGasPrice": "0xd8974418",
      "from": "0x00fbd18efde748e1b3f7bb01c79fbc318610b807",
      "to": "0x5920257792dbba08dfadd34607b781e3c2cdb3cf",
      "contractAddress": null,
      "l1Fee": "0xd3dd82ea0879"
    }
  ],
  "libraries": [],
  "pending": [],
  "returns": {},
  "timestamp": 1728178817,
  "chain": 534351,
  "commit": "e311a2f"
}