{
  "transactions": [
    {
      "hash": "0xcb6a3c649b27e2da2d01200e287f025a43b0e529d51733ca5b6b495b10bb305d",
      "transactionType": "CALL",
      "contractName": null,
      "contractAddress": "0x724487c57defa836188cc84ef78c1373ea35bf2f",
      "function": "addMembers(address[],uint8,uint256)",
      "arguments": [
        "[0xa9d392cDC8cf47564776113f6515bfe3dD2eAf6c, 0x207B35ab2ad7d0b498c955eAaE8bCAC683B0Dfd4, 0x87f603924309889B39687AC0A1669b1E5a506E74]",
        "10",
        "100"
      ],
      "transaction": {
        "from": "0xfeb42b6c3c4250f435c20cff22ea2fe386a830f2",
        "to": "0x724487c57defa836188cc84ef78c1373ea35bf2f",
        "gas": "0x56821",
        "value": "0x0",
        "input": "0xf25af6bf0000000000000000000000000000000000000000000000000000000000000060000000000000000000000000000000000000000000000000000000000000000a00000000000000000000000000000000000000000000000000000000000000640000000000000000000000000000000000000000000000000000000000000003000000000000000000000000a9d392cdc8cf47564776113f6515bfe3dd2eaf6c000000000000000000000000207b35ab2ad7d0b498c955eaae8bcac683b0dfd400000000000000000000000087f603924309889b39687ac0a1669b1e5a506e74",
        "nonce": "0x4",
        "chainId": "0x8274f"
      },
      "additionalContracts": [],
      "isFixedGasLimit": false
    }
  ],
  "receipts": [
    {
      "status": "0x1",
      "cumulativeGasUsed": "0x3b26a",
      "logs": [
        {
          "address": "0x724487c57defa836188cc84ef78c1373ea35bf2f",
          "topics": [
            "0xb206392351d54bd361786bfb592c990de27bd38a1d9d77853330028101065f98"
          ],
          "data": "0x0000000000000000000000000000000000000000000000000000000000000060000000000000000000000000000000000000000000000000000000000000000a00000000000000000000000000000000000000000000000000000000000000640000000000000000000000000000000000000000000000000000000000000003000000000000000000000000a9d392cdc8cf47564776113f6515bfe3dd2eaf6c000000000000000000000000207b35ab2ad7d0b498c955eaae8bcac683b0dfd400000000000000000000000087f603924309889b39687ac0a1669b1e5a506e74",
          "blockHash": "0xc9a894da8358e696f814c1e83b2f9066fd0c14ce16765a15a83247f7897614c4",
          "blockNumber": "0x69152d",
          "transactionHash": "0xcb6a3c649b27e2da2d01200e287f025a43b0e529d51733ca5b6b495b10bb305d",
          "transactionIndex": "0x0",
          "logIndex": "0x0",
          "removed": false
        }
      ],
      "logsBloom": "0x00000000000000000000000000000000000000000000000000000000000000000000000000000000040000000000000000000000000000000000000000000000000000000000000000000000000000000000000000000000000000000000000000000000000000100000000000000000000000000000000000000000000000000000000200000000000000000000000000000000000000000000000000000006000000000000000000000000000000000000000000000000000000000000000000000000000400000000000000000000000000000000000000000000000000000000000000000000000000000000000000000000000000000000000000000000",
      "type": "0x2",
      "transactionHash": "0xcb6a3c649b27e2da2d01200e287f025a43b0e529d51733ca5b6b495b10bb305d",
      "transactionIndex": "0x0",
      "blockHash": "0xc9a894da8358e696f814c1e83b2f9066fd0c14ce16765a15a83247f7897614c4",
      "blockNumber": "0x69152d",
      "gasUsed": "0x3b26a",
      "effectiveGasPrice": "0xe1c105c6",
      "from": "0xfeb42b6c3c4250f435c20cff22ea2fe386a830f2",
      "to": "0x724487c57defa836188cc84ef78c1373ea35bf2f",
      "contractAddress": null,
      "l1Fee": "0xdd094938bbfc"
    }
  ],
  "libraries": [],
  "pending": [],
  "returns": {},
  "timestamp": 1728179017,
  "chain": 534351,
  "commit": "e311a2f"
}