{
  "transactions": [
    {
      "hash": "0x6679f77568b35e5435dee970aeacf5ea65aa6fea5af205f290179716ede42b94",
      "transactionType": "CALL",
      "contractName": null,
      "contractAddress": "0x5920257792dbba08dfadd34607b781e3c2cdb3cf",
      "function": "mint(address,uint256)",
      "arguments": [
        "0xa9d392cDC8cf47564776113f6515bfe3dD2eAf6c",
        "1000000000000000000000000000000000000000000000000000000"
      ],
      "transaction": {
        "from": "0xfeb42b6c3c4250f435c20cff22ea2fe386a830f2",
        "to": "0x5920257792dbba08dfadd34607b781e3c2cdb3cf",
        "gas": "0x1159c",
        "value": "0x0",
        "input": "0x40c10f19000000000000000000000000a9d392cdc8cf47564776113f6515bfe3dd2eaf6c0000000000000000000a70c3c40a64e6c51999090b65f67d9240000000000000",
        "nonce": "0x0",
        "chainId": "0x8274f"
      },
      "additionalContracts": [],
      "isFixedGasLimit": false
    },
    {
      "hash": "0x298768b700db78ad25e3caf1a6fff84b471fc7bec00ea827a5109d15e672b15a",
      "transactionType": "CALL",
      "contractName": null,
      "contractAddress": "0x5920257792dbba08dfadd34607b781e3c2cdb3cf",
      "function": "mint(address,uint256)",
      "arguments": [
        "0x207B35ab2ad7d0b498c955eAaE8bCAC683B0Dfd4",
        "1000000000000000000000000000000000000000000000000000000"
      ],
      "transaction": {
        "from": "0xfeb42b6c3c4250f435c20cff22ea2fe386a830f2",
        "to": "0x5920257792dbba08dfadd34607b781e3c2cdb3cf",
        "gas": "0x1159c",
        "value": "0x0",
        "input": "0x40c10f19000000000000000000000000207b35ab2ad7d0b498c955eaae8bcac683b0dfd40000000000000000000a70c3c40a64e6c51999090b65f67d9240000000000000",
        "nonce": "0x1",
        "chainId": "0x8274f"
      },
      "additionalContracts": [],
      "isFixedGasLimit": false
    },
    {
      "hash": "0x071e42a20bcd06479002b56e7109f6d8503e8de68ea2d7488d17aaeb96babf64",
      "transactionType": "CALL",
      "contractName": null,
      "contractAddress": "0x5920257792dbba08dfadd34607b781e3c2cdb3cf",
      "function": "mint(address,uint256)",
      "arguments": [
        "0x87f603924309889B39687AC0A1669b1E5a506E74",
        "1000000000000000000000000000000000000000000000000000000"
      ],
      "transaction": {
        "from": "0xfeb42b6c3c4250f435c20cff22ea2fe386a830f2",
        "to": "0x5920257792dbba08dfadd34607b781e3c2cdb3cf",
        "gas": "0x1159c",
        "value": "0x0",
        "input": "0x40c10f1900000000000000000000000087f603924309889b39687ac0a1669b1e5a506e740000000000000000000a70c3c40a64e6c51999090b65f67d9240000000000000",
        "nonce": "0x2",
        "chainId": "0x8274f"
      },
      "additionalContracts": [],
      "isFixedGasLimit": false
    },
    {
      "hash": "0x5e0676b1efb6f2eb936847f9fc5d05db1dc2d55fb7a818e33dbe077242deeee7",
      "transactionType": "CALL",
      "contractName": null,
      "contractAddress": "0x5920257792dbba08dfadd34607b781e3c2cdb3cf",
      "function": "mint(address,uint256)",
      "arguments": [
        "0x650Df107082482F17208cd578CeE90C6C73b3a0C",
        "1000000000000000000000000000000000000000000000000000000"
      ],
      "transaction": {
        "from": "0xfeb42b6c3c4250f435c20cff22ea2fe386a830f2",
        "to": "0x5920257792dbba08dfadd34607b781e3c2cdb3cf",
        "gas": "0xc441",
        "value": "0x0",
        "input": "0x40c10f19000000000000000000000000650df107082482f17208cd578cee90c6c73b3a0c0000000000000000000a70c3c40a64e6c51999090b65f67d9240000000000000",
        "nonce": "0x3",
        "chainId": "0x8274f"
      },
      "additionalContracts": [],
      "isFixedGasLimit": false
    }
  ],
  "receipts": [
    {
      "status": "0x1",
      "cumulativeGasUsed": "0xc8fd",
      "logs": [
        {
          "address": "0x5920257792dbba08dfadd34607b781e3c2cdb3cf",
          "topics": [
            "0xddf252ad1be2c89b69c2b068fc378daa952ba7f163c4a11628f55a4df523b3ef",
            "0x0000000000000000000000000000000000000000000000000000000000000000",
            "0x000000000000000000000000a9d392cdc8cf47564776113f6515bfe3dd2eaf6c"
          ],
          "data": "0x0000000000000000000a70c3c40a64e6c51999090b65f67d9240000000000000",
          "blockHash": "0xce8bdb184f3b309315eb5f15dcb9b84d4a511f1ac791f3e06617ca6bc9076f4b",
          "blockNumber": "0x691432",
          "transactionHash": "0x6679f77568b35e5435dee970aeacf5ea65aa6fea5af205f290179716ede42b94",
          "transactionIndex": "0x0",
          "logIndex": "0x0",
          "removed": false
        }
      ],
      "logsBloom": "0x00000000000000000400000000000000000000000000000000040000000000000000000000000000000000000000000000000000000000000000000000000000000000000000000000000008000000000000000040000000000000000000000000000000020000000000000000000800000000000000000000000010000000000000000000000000000000000000000000000000000000000000040000000000000000000000000000000000000000000000000000000000000000000000000000000002000000000000000000000000000000000000000000000000000020000000000000000000400000000000000000000000000000000000020000000000",
      "type": "0x2",
      "transactionHash": "0x6679f77568b35e5435dee970aeacf5ea65aa6fea5af205f290179716ede42b94",
      "transactionIndex": "0x0",
      "blockHash": "0xce8bdb184f3b309315eb5f15dcb9b84d4a511f1ac791f3e06617ca6bc9076f4b",
      "blockNumber": "0x691432",
      "gasUsed": "0xc8fd",
      "effectiveGasPrice": "0xcd226ecf",
      "from": "0xfeb42b6c3c4250f435c20cff22ea2fe386a830f2",
      "to": "0x5920257792dbba08dfadd34607b781e3c2cdb3cf",
      "contractAddress": null,
      "l1Fee": "0xbfdeb706b176"
    },
    {
      "status": "0x1",
      "cumulativeGasUsed": "0xc8fd",
      "logs": [
        {
          "address": "0x5920257792dbba08dfadd34607b781e3c2cdb3cf",
          "topics": [
            "0xddf252ad1be2c89b69c2b068fc378daa952ba7f163c4a11628f55a4df523b3ef",
            "0x0000000000000000000000000000000000000000000000000000000000000000",
            "0x000000000000000000000000207b35ab2ad7d0b498c955eaae8bcac683b0dfd4"
          ],
          "data": "0x0000000000000000000a70c3c40a64e6c51999090b65f67d9240000000000000",
          "blockHash": "0xba725b0ce123ae7a468b9a14d0f7b920e2c3214534c2a663be20bab7f00c7691",
          "blockNumber": "0x691433",
          "transactionHash": "0x298768b700db78ad25e3caf1a6fff84b471fc7bec00ea827a5109d15e672b15a",
          "transactionIndex": "0x0",
          "logIndex": "0x0",
          "removed": false
        }
      ],
      "logsBloom": "0x00000000000000000080000000000000000000000000000000000000000000000000000000000000000000000000000000000000000000000000000000000000000000000000000000000008000000000000000040000000000000000000000000000000020000000000000000000800000000000000000000000010000000000000000000000000000000000000000000000000000000000000000000000000010000000000000000800000000000000000000000000000000000000000000000000002000000000000000000000000000000000000000000000000000020000000000000000000400000000000000000000000000000000000020000000000",
      "type": "0x2",
      "transactionHash": "0x298768b700db78ad25e3caf1a6fff84b471fc7bec00ea827a5109d15e672b15a",
      "transactionIndex": "0x0",
      "blockHash": "0xba725b0ce123ae7a468b9a14d0f7b920e2c3214534c2a663be20bab7f00c7691",
      "blockNumber": "0x691433",
      "gasUsed": "0xc8fd",
      "effectiveGasPrice": "0xcd226ecf",
      "from": "0xfeb42b6c3c4250f435c20cff22ea2fe386a830f2",
      "to": "0x5920257792dbba08dfadd34607b781e3c2cdb3cf",
      "contractAddress": null,
      "l1Fee": "0xbfdeb706b176"
    },
    {
      "status": "0x1",
      "cumulativeGasUsed": "0x191fa",
      "logs": [
        {
          "address": "0x5920257792dbba08dfadd34607b781e3c2cdb3cf",
          "topics": [
            "0xddf252ad1be2c89b69c2b068fc378daa952ba7f163c4a11628f55a4df523b3ef",
            "0x0000000000000000000000000000000000000000000000000000000000000000",
            "0x00000000000000000000000087f603924309889b39687ac0a1669b1e5a506e74"
          ],
          "data": "0x0000000000000000000a70c3c40a64e6c51999090b65f67d9240000000000000",
          "blockHash": "0xba725b0ce123ae7a468b9a14d0f7b920e2c3214534c2a663be20bab7f00c7691",
          "blockNumber": "0x691433",
          "transactionHash": "0x071e42a20bcd06479002b56e7109f6d8503e8de68ea2d7488d17aaeb96babf64",
          "transactionIndex": "0x1",
          "logIndex": "0x1",
          "removed": false
        }
      ],
      "logsBloom": "0x00000000000000000000000000000000000000000000000000000000000000000000000000000000000000000000000000000000000000000000000000000000000000000000000000000008000000000000000040000000000000000000000000000000020000000000000000000800000000000000000000000010000000000000000000000000000000000000000000000000000000000000000000000000000000000000000000000000000000000000000000020000000000000000004000000002010000000000000000000000000000000000000000000000000020000000000000000000400000000000000000000000000000000000020000000000",
      "type": "0x2",
      "transactionHash": "0x071e42a20bcd06479002b56e7109f6d8503e8de68ea2d7488d17aaeb96babf64",
      "transactionIndex": "0x1",
      "blockHash": "0xba725b0ce123ae7a468b9a14d0f7b920e2c3214534c2a663be20bab7f00c7691",
      "blockNumber": "0x691433",
      "gasUsed": "0xc8fd",
      "effectiveGasPrice": "0xcd226ecf",
      "from": "0xfeb42b6c3c4250f435c20cff22ea2fe386a830f2",
      "to": "0x5920257792dbba08dfadd34607b781e3c2cdb3cf",
      "contractAddress": null,
      "l1Fee": "0xbfdeb706b176"
    },
    {
      "status": "0x1",
      "cumulativeGasUsed": "0x2182b",
      "logs": [
        {
          "address": "0x5920257792dbba08dfadd34607b781e3c2cdb3cf",
          "topics": [
            "0xddf252ad1be2c89b69c2b068fc378daa952ba7f163c4a11628f55a4df523b3ef",
            "0x0000000000000000000000000000000000000000000000000000000000000000",
            "0x000000000000000000000000650df107082482f17208cd578cee90c6c73b3a0c"
          ],
          "data": "0x0000000000000000000a70c3c40a64e6c51999090b65f67d9240000000000000",
          "blockHash": "0xba725b0ce123ae7a468b9a14d0f7b920e2c3214534c2a663be20bab7f00c7691",
          "blockNumber": "0x691433",
          "transactionHash": "0x5e0676b1efb6f2eb936847f9fc5d05db1dc2d55fb7a818e33dbe077242deeee7",
          "transactionIndex": "0x2",
          "logIndex": "0x2",
          "removed": false
        }
      ],
      "logsBloom": "0x00000000000000000000000000000200000000000000000000000000000000000000000040000000000000000000000000000000000000000000000000000000000000000000000000000008000000000000000040000000000000000000000000000000020000000000000000000800000000000000000000000010000000000000000000000000000000000000000000000000000000000000000000000000000000000000000000000000000000400000000000000000000000000000000000000002000000000000000000000000000000000000000000000000000020000000000000000000400000000000000000000000000000000000020000000000",
      "type": "0x2",
      "transactionHash": "0x5e0676b1efb6f2eb936847f9fc5d05db1dc2d55fb7a818e33dbe077242deeee7",
      "transactionIndex": "0x2",
      "blockHash": "0xba725b0ce123ae7a468b9a14d0f7b920e2c3214534c2a663be20bab7f00c7691",
      "blockNumber": "0x691433",
      "gasUsed": "0x8631",
      "effectiveGasPrice": "0xcd226ecf",
      "from": "0xfeb42b6c3c4250f435c20cff22ea2fe386a830f2",
      "to": "0x5920257792dbba08dfadd34607b781e3c2cdb3cf",
      "contractAddress": null,
      "l1Fee": "0xbfdeb706b162"
    }
  ],
  "libraries": [],
  "pending": [],
  "returns": {},
  "timestamp": 1728176847,
  "chain": 534351,
  "commit": "e311a2f"
}